:100000000C942A000C9488010C94B1010C944603C2
:100010000C941D030C943C000C94CB020C94F40241
:100020000C949A020C9448020C943C000C943C00F2
:100030000C943C000C943C000C943C000C943C0050
:100040000C943C000C943C000C94DA010C9471026A
:100050000C943C0011241FBECFE5D4E0DEBFCDBF21
:1000600020E0A0E6B0E001C01D92A437B207E1F79E
:100070000E9452000C9494040C94000010926300AF
:1000800010926200109261000895809165008F5F68
:1000900080936500843029F481E08093640010929D
:1000A00065000895CF93DF93CDB7DEB72C970FB6D9
:1000B000F894DEBF0FBECDBF8FB780688FBF1982A7
:1000C0001A821B82FF24F394F9826894EE24E1F8EB
:1000D000EA826EE370E081E00E943F02CE01019669
:1000E0000E9403028E010C5F1F4F89E0D8011D9210
:1000F0008A95E9F7ED8285E08F83F88684EF90E0BA
:100100009A87898765E470E080E00E948B04C801CB
:100110000E946F03929A8AB38F608ABB9FEF94BB51
:100120008BB3807F8BBB85B395BB01E08DECF2E098
:10013000E4E078E060E150E240E430E8909164006F
:10014000913049F5909163009F5F9C3319F0909333
:10015000630007C010926300909162009F5F9093CC
:100160006200909162009C3339F410926200909189
:1001700061009F5F9093610090916100983111F44C
:1001800010926100909160009E3111F41092600015
:1001900010926400D3CF95B305BB2BB3B09163002D
:1001A000B89F912D1124969596959695990F192F94
:1001B000110F110F910FB91B922F907F9B2B9BBB9F
:1001C000A3EFB1E01197F1F700C0000095B3F5BBC4
:1001D0009BB320916300289F212D112426952695FD
:1001E0002695907F922B9BBBA3EFB1E01197F1F77F
:1001F00000C0000095B3E5BB2BB3B0916200B89F7F
:10020000912D1124969596959695990F192F110F6A
:10021000110F910FB91B922F907F9B2B9BBBA3EFCC
:10022000B1E01197F1F700C0000095B375BB9BB327
:1002300020916200289F212D112426952695269530
:10024000907F922B9BBBA3EFB1E01197F1F700C019
:10025000000095B365BB2BB3B0916100B89F912DA1
:100260001124969596959695990F192F110F110FA8
:10027000910FB91B922F907F9B2B9BBBA3EFB1E0FB
:100280001197F1F700C0000095B355BB9BB32091C7
:100290006100289F212D1124269526952695907F73
:1002A000922B9BBBA3EFB1E01197F1F700C00000C8
:1002B00095B345BB2BB3B0916000B89F912D11242D
:1002C000969596959695990F192F110F110F910FDD
:1002D000B91B922F907F9B2B9BBBA3EFB1E0119793
:1002E000F1F700C0000095B335BB9BB320916000CF
:1002F000289F212D1124269526952695907F922BB7
:100300009BBBA3EFB1E01197F1F700C0000016CF3F
:100310001F920F920FB60F9211242F933F934F937A
:100320005F936F937F938F939F93AF93BF93EF935D
:10033000FF93E0916600F0916700309709F009950E
:10034000FF91EF91BF91AF919F918F917F916F91AD
:100350005F914F913F912F910F900FBE0F901F9083
:1003600018951F920F920FB60F9211242F933F935F
:100370004F935F936F937F938F939F93AF93BF93AD
:10038000EF93FF93E0916800F0916900309709F0D6
:100390000995FF91EF91BF91AF919F918F917F91BF
:1003A0006F915F914F913F912F910F900FBE0F90E2
:1003B0001F9018951F920F920FB60F9211242F9332
:1003C0003F934F935F936F937F938F939F93AF93DD
:1003D000BF93EF93FF93E0916A00F0916B00309729
:1003E00009F00995FF91EF91BF91AF919F918F9186
:1003F0007F916F915F914F913F912F910F900FBE21
:100400000F901F901895FC019FB79F779FBF908119
:10041000913079F018F09230C9F02DC08A988BB7DE
:1004200080648BBF85B7918193708C7F892B85BF4A
:1004300022C08B988BB780688BBF85B791819370F2
:10044000990F990F837F892B85BF15C0BA988BB7F9
:1004500080628BBF84B79281292F217030E0002405
:10046000369527950794369527950794322F202D9A
:100470008F7B282B24BF8FB780688FBF0895E82F0C
:10048000F0E0EE0FFF1FEA59FF4F7183608308957C
:100490001F920F920FB60F9211242F933F934F93F9
:1004A0005F936F937F938F939F93AF93BF93EF93DC
:1004B000FF93E0916C00F0916D00309709F0099581
:1004C000FF91EF91BF91AF919F918F917F916F912C
:1004D0005F914F913F912F910F900FBE0F901F9002
:1004E00018951F920F920FB60F9211242F933F93DE
:1004F0004F935F936F937F938F939F93AF93BF932C
:10050000EF93FF93E0916C00F0916D00309709F04C
:100510000995FF91EF91BF91AF919F918F917F913D
:100520006F915F914F913F912F910F900FBE0F9060
:100530001F9018951F920F920FB60F9211242F93B0
:100540003F934F935F936F937F938F939F93AF935B
:10055000BF93EF93FF93E0916E00F0916F0030979F
:1005600011F0099507C0E0917000F091710030978B
:1005700009F00995FF91EF91BF91AF919F918F91F4
:100580007F916F915F914F913F912F910F900FBE8F
:100590000F901F9018951F920F920FB60F92112473
:1005A0002F933F934F935F936F937F938F939F937B
:1005B000AF93BF93EF93FF93E0916E00F0916F00C4
:1005C000309709F00995FF91EF91BF91AF919F91FD
:1005D0008F917F916F915F914F913F912F910F90EC
:1005E0000FBE0F901F9018951F920F920FB60F928B
:1005F00011242F933F934F935F936F937F938F9328
:100600009F93AF93BF93EF93FF93E0917000F091AE
:100610007100309709F00995FF91EF91BF91AF916B
:100620009F918F917F916F915F914F913F912F910A
:100630000F900FBE0F901F9018951F920F920FB63C
:100640000F9211242F933F934F935F936F937F9358
:100650008F939F93AF93BF93EF93FF93E0917200BB
:10066000F0917300309709F00995FF91EF91BF91D8
:10067000AF919F918F917F916F915F914F913F913A
:100680002F910F900FBE0F901F9018951F920F92F1
:100690000FB60F9211242F933F934F935F936F9355
:1006A0007F938F939F93AF93BF93EF93FF93E091CB
:1006B0007200F0917300309709F00995FF91EF9166
:1006C000BF91AF919F918F917F916F915F914F916A
:1006D0003F912F910F900FBE0F901F901895FC0126
:1006E0008081813009F44AC038F0823009F48BC02F
:1006F000833009F4CEC0089512BE85818CBF8181FC
:100700008D7F813029F4BB9A83B78F7783BF03C075
:1007100083B7806883BF8181811107C08481813064
:1007200061F489B7816089BF08C0823031F4848167
:10073000813019F489B7826089BF93B721813381F1
:100740003770892F8078382B9281937040E1949F85
:10075000C0011124832B422F417050E00024569594
:1007600047950794569547950794542F402D482B4D
:100770002270220F220F422B43BF08951DBC1CBCC8
:10078000858196819BBD8ABD9781892F8B7F815002
:10079000833030F0892F8D7F893011F09F3029F41C
:1007A0008D9A8FB5877F8FBD03C08FB588608FBD51
:1007B0008781811107C08481813061F489B78460A9
:1007C00089BF08C0843031F48481813019F489B73D
:1007D000806189BF9FB527812370892F8C73282B57
:1007E000928130E4939FC0011124822B8FBD2EB5DE
:1007F00093819770822F807E982B87818C70880FD1
:10080000892B8EBD08951DBC1CBC8581968199BD28
:1008100088BD9781892F8B7F8150833030F0892F5D
:100820008D7F893011F09F3029F48C9A8FB58B7FA2
:100830008FBD03C08FB584608FBD8781811107C0D4
:100840008481813061F489B7846089BF08C08430B5
:1008500031F48481813019F489B7886089BF9FB5EC
:1008600027812370892F8C7C282B9281937040E103
:10087000949FC0011124822B8FBD2EB59381977058
:10088000822F807E982B87818C70880F892B8EBD5C
:10089000089514BC858183BD81818D7F813029F4C9
:1008A0008F9A85B58F7785BD03C085B5806885BD76
:1008B0008181811107C08481813061F489B78064AE
:1008C00089BF08C0823031F48481813019F489B73E
:1008D000806889BF95B5418150855770892F807890
:1008E000582B9281937020E1929FC0011124852B97
:1008F000242F217030E000243695279507943695F3
:1009000027950794322F202D282B4270440F440F37
:10091000242B25BD0895E82FF0E0EE0FFF1FE459CA
:0C092000FF4F718360830895F894FFCFAF
:00000001FF
